:100000000C9468000C947A000C947A000C947A009A
:100010000C947A000C947A000C947A000C947A0078
:100020000C947A000C947A000C947A000C947A0068
:100030000C947A000C947A000C947A000C947A0058
:100040000C947A000C947A000C947A000C947A0048
:100050000C947A000C947A000C947A000C947A0038
:100060000C947A000C947A00F700FA000A011B0144
:10007000C800C800C800C800C800C800C800C80040
:10008000C800C800C800C800C800C800C800C80030
:10009000C800C800C800C800C800C800C800C80020
:1000A000C800C800C800C800C800C800C800C80010
:1000B000C800C800C800C800C800C800C800C80000
:1000C000C800C800C800C800F700FA000A011B01F8
:1000D00011241FBECFEFD8E0DEBFCDBF21E0A0E0EE
:1000E000B1E001C01D92A630B207E1F70E94C10045
:1000F0000C9457010C9400001092C50087E6809381
:10010000C40088E18093C10086E08093C20084B17E
:10011000806284B980E090E005C0FC01E050FF4FB0
:100120001082019685309105C4F31092050108955F
:10013000853321F485B18F7D85B9089585B18062BD
:1001400085B9089585B1806285B9089585B18F7D9F
:1001500085B9089590910501933048F4E92FF0E0B6
:10016000E050FF4F80839F5F909305010895E0E08A
:10017000F1E08DEE84838EEB808381E08093050136
:1001800008950E947C00C0E0D0E002C0C0E0D0E052
:100190008091C0008823E4F78091C00085FFFCCFE8
:1001A0001091C600812F0E94AA00209709F049C033
:1001B000133091F0153081F0163071F0173061F086
:1001C000183051F0133341F0153331F0163321F06C
:1001D000173311F01833A9F5812F90E0FC01359702
:1001E000E433F105A8F6EC5CFF4F0C9451010E943A
:1001F000A200CECF0E94A600CBCF8091C00085FF89
:10020000FCCFF901E050FF4F80818093C6002F5F43
:100210003F4F02C020E030E08091050190E02817B8
:1002200039075CF3B5CFFC01E050FF4F108210920C
:100230000501019602C080E090E0853091059CF3B5
:10024000A7CF209779F48FEF810F823040F01430E0
:1002500031F0113321F0123311F0143319F4C12F9E
:10026000D0E096CF112309F493CFC430D10599F093
:1002700034F4CE010197029708F488CF89CFC133B7
:10028000D1050CF485CFC333D1050CF47FCFC43333
:10029000D10509F07DCF812F0E949800C0E0D0E009
:1002A00077CFEE0FFF1F0590F491E02D0994F8949D
:0202B000FFCF7E
:00000001FF
